{
    "contractName": "EtherStore",
    "abi": [
        {
            "inputs": [
                {
                    "internalType": "address",
                    "name": "",
                    "type": "address"
                }
            ],
            "name": "balances",
            "outputs": [
                {
                    "internalType": "uint256",
                    "name": "",
                    "type": "uint256"
                }
            ],
            "stateMutability": "view",
            "type": "function"
        },
        {
            "inputs": [],
            "name": "deposit",
            "outputs": [],
            "stateMutability": "payable",
            "type": "function"
        },
        {
            "inputs": [],
            "name": "getBalance",
            "outputs": [
                {
                    "internalType": "uint256",
                    "name": "",
                    "type": "uint256"
                }
            ],
            "stateMutability": "view",
            "type": "function"
        },
        {
            "inputs": [],
            "name": "withdraw",
            "outputs": [],
            "stateMutability": "nonpayable",
            "type": "function"
        }
    ],
    "bytecode": "608060405234801561001057600080fd5b5061029e806100206000396000f3fe60806040526004361061003f5760003560e01c806312065fe01461004457806327e235e3146100655780633ccfd60b14610092578063d0e30db0146100a9575b600080fd5b34801561005057600080fd5b50475b60405190815260200160405180910390f35b34801561007157600080fd5b506100536100803660046101f3565b60006020819052908152604090205481565b34801561009e57600080fd5b506100a76100b1565b005b6100a76101cd565b33600090815260208190526040902054806101065760405162461bcd60e51b815260206004820152601060248201526f2737ba1032b737bab3b41032ba3432b960811b60448201526064015b60405180910390fd5b6040516000903390670de0b6b3a7640000908381818185875af1925050503d8060008114610150576040519150601f19603f3d011682016040523d82523d6000602084013e610155565b606091505b505090508061019d5760405162461bcd60e51b81526020600482015260146024820152732330b4b632b2103a379039b2b7321022ba3432b960611b60448201526064016100fd565b3360009081526020819052604081208054670de0b6b3a764000092906101c4908490610239565b90915550505050565b33600090815260208190526040812080543492906101ec908490610250565b9091555050565b60006020828403121561020557600080fd5b81356001600160a01b038116811461021c57600080fd5b9392505050565b634e487b7160e01b600052601160045260246000fd5b60008282101561024b5761024b610223565b500390565b6000821982111561026357610263610223565b50019056fea264697066735822122003a91645e183f5d0fb1b0ead6ea79d0f20c596654a6febb8db356331e98568a464736f6c634300080c0033",
    "sourcePath": "/home/dukhovny/Solidity/Re-Entrancy Attack/contracts/EtherStore.sol",
    "compiler": {
        "name": "solc",
        "version": "0.8.12+commit.f00d7308"
    },
    "functionHashes": {
        "balances(address)": "27e235e3",
        "deposit()": "d0e30db0",
        "getBalance()": "12065fe0",
        "withdraw()": "3ccfd60b"
    },
    "gasEstimates": {
        "creation": {
            "codeDepositCost": "134000",
            "executionCost": "177",
            "totalCost": "134177"
        },
        "external": {
            "balances(address)": "2475",
            "deposit()": "24532",
            "getBalance()": "149",
            "withdraw()": "infinite"
        }
    }
}